:100000000C9462000C948A000C948A000C948A0070
:100010000C948A000C948A000C948A000C948A0038
:100020000C948A000C948A000C948A000C948A0028
:100030000C948A000C948A000C948A000C948A0018
:100040000C942B030C948A000C948A000C948A0064
:100050000C948A000C948A000C948A000C948A00F8
:100060000C948A000C948A000000000024002700F1
:100070002A0000000000250028002B0000000000DE
:1000800023002600290004040404040404040202DA
:100090000202020203030303030301020408102007
:1000A0004080010204081020010204081020000012
:1000B0000007000201000003040600000000000029
:1000C00000008C0011241FBECFEFD8E0DEBFCDBFF3
:1000D00011E0A0E0B1E0EEEAFAE002C005900D9276
:1000E000A833B107D9F711E0A8E3B1E001C01D9230
:1000F000A635B107E1F710E0C4ECD0E004C02297C8
:10010000FE010E945105C23CD107C9F70E94F704C5
:100110000C9455050C940000CF92EF920F9388E356
:1001200091E06DE04CE023E002E0EE24E394CC2487
:100130000E94F2020F91EF90CF900895CF93DF933A
:1001400085E00E94A404EC0186E00E94A4042097AC
:1001500051F5019709F046C088E061E00E94500423
:1001600089E060E00E9450048AE060E00E94500450
:100170008BE060E00E94500488E391E060E041E0A1
:100180000E94050288E391E060E071E00E944C0566
:1001900064E170E080E090E00E94730388E391E006
:1001A0000E9434021FC02197E9F4892BD9F488E01A
:1001B00060E00E94500489E060E00E9450048AE000
:1001C00061E00E9450048BE060E00E94500488E3EC
:1001D00091E060E041E00E94050288E391E06CE07C
:1001E00071E01AC088E061E00E94500489E060E09C
:1001F0000E9450048AE061E00E9450048BE060E0BD
:100200000E94500488E391E060E041E00E94050212
:1002100088E391E069E171E00E944C0564E170E0DF
:1002200080E090E00E94730388E391E00E94340232
:10023000DF91CF91089588E391E060E142E020E012
:100240000E943C0285E062E00E94110486E062E0C8
:100250000E94110488E061E00E94110489E061E0DD
:100260000E9411048AE061E00E9411048BE061E0C9
:100270000E94110408950F931F938C01FC01868145
:1002800060E00E94500481E090E00E94CC03F801FD
:10029000868161E00E94500481E090E00E94CC03DE
:1002A000F801868160E00E94500484E690E00E949C
:1002B000CC031F910F910895CF92DF92EF92FF929E
:1002C0000F931F93CF93DF93D82EC92E282F392F4A
:1002D000C9018C01C0E0D0E0E62EFF24F80187813F
:1002E00061E00E941104B7010C2E02C0759567955C
:1002F0000A94E2F76170F80187810E945004219608
:100300000F5F1F4FC830D10549F78D2D9C2D0E94DE
:100310003B01DF91CF911F910F91FF90EF90DF9004
:10032000CF900895CF92DF92EF92FF920F931F9399
:10033000CF93DF93D82EC92E282F392FC9018C01D6
:10034000C0E0D0E0E62EFF24F801878161E00E9442
:100350001104B7010C2E02C0759567950A94E2F757
:100360006170F80187810E94500421960F5F1F4F32
:10037000C430D10549F78D2D9C2D0E943B01DF91A2
:10038000CF911F910F91FF90EF90DF90CF90089544
:100390001F93CF93DF93EC01162F8C81642F0E9463
:1003A00050048D818F3F19F060E00E9450048F85CA
:1003B00084FF05C0CE01612F0E945C010EC0612F39
:1003C00070E084E0759567958A95E1F7CE010E940B
:1003D0009201CE01612F0E949201DF91CF911F9176
:1003E000089541E00E94C80181E090E0089540E056
:1003F0000E94C8010895FC016089862F8460808B6B
:100400006C60CF010E94F7010895DF93CF93CDB7C1
:10041000DEB728970FB6F894DEBF0FBECDBF9C01A4
:10042000FE013196A0E3B1E088E00D900192815089
:10043000E1F7F9018389481710F0482F4150E42F64
:10044000F0E0EE0FFF1FEC0FFD1F8181680F606869
:10045000C9010E94F70128960FB6F894DEBF0FBEBF
:10046000CDBFCF91DF91089561E00E94F70180ED4B
:1004700097E00E94CC030895CF93DF93EC014230C4
:1004800018F08F8588608F874B8B1C8A222329F078
:10049000413019F48F8584608F8780E593EC0E944A
:1004A000CC038C8160E00E9450048E8160E00E9449
:1004B00050048D818F3F19F060E00E9450046F85D9
:1004C00064FD1DC0CE0163E00E94920184E991E1C8
:1004D0000E94CC03CE0163E00E94920184E991E185
:1004E0000E94CC03CE0163E00E94920186E990E075
:1004F0000E94CC03CE0162E00E94920116C06062AD
:10050000CE010E94F70184E991E10E94CC036F853E
:100510006062CE010E94F70186E990E00E94CC0360
:100520006F856062CE010E94F7016F856062CE0127
:100530000E94F70184E0888BCE010E94FB01CE016E
:100540000E94340282E0898BCE0166E00E94F701AE
:10055000DF91CF9108956F927F928F92AF92CF9259
:10056000EF920F931F93DF93CF93CDB7DEB73C018C
:10057000162F842FF301448325830683E782C086E8
:10058000A18682869D8593879E8594879F85958782
:100590009889968761E00E941104F30185818F3F5D
:1005A00019F061E00E941104F301868161E00E946C
:1005B0001104112319F0F301178603C080E1F30140
:1005C0008787C30160E141E020E00E943C02CF91B7
:1005D000DF911F910F91EF90CF90AF908F907F9010
:1005E0006F9008958F92AF92CF92EF920F931F93D7
:1005F000CF93DF93DC01362F542F722F102FAE2CA8
:100600008C2C13961C921E9212978CE291E01196FC
:100610009C938E9300D000D0EDB7FEB73196CDB746
:10062000DEB71982118212821382CD0161E0432F5D
:100630002FEF052FE72EC12E0E94AB020F900F90D7
:100640000F900F90DF91CF911F910F91EF90CF906E
:10065000AF908F9008951F920F920FB60F921124B2
:100660002F933F938F939F93AF93BF9380915101AB
:1006700090915201A0915301B091540130915501D4
:100680000196A11DB11D232F2D5F2D3720F02D5771
:100690000196A11DB11D20935501809351019093A6
:1006A0005201A0935301B093540180914D01909158
:1006B0004E01A0914F01B09150010196A11DB11DB5
:1006C00080934D0190934E01A0934F01B093500140
:1006D000BF91AF919F918F913F912F910F900FBE3E
:1006E0000F901F9018959B01AC017FB7F8948091F3
:1006F0004D0190914E01A0914F01B091500166B50E
:10070000A89B05C06F3F19F00196A11DB11D7FBFC9
:10071000BA2FA92F982F8827860F911DA11DB11DD3
:1007200062E0880F991FAA1FBB1F6A95D1F7BC0111
:100730002DC0FFB7F89480914D0190914E01A0918A
:100740004F01B0915001E6B5A89B05C0EF3F19F0ED
:100750000196A11DB11DFFBFBA2FA92F982F882781
:100760008E0F911DA11DB11DE2E0880F991FAA1FD8
:10077000BB1FEA95D1F7861B970B885E9340C8F2A2
:10078000215030404040504068517C4F2115310588
:100790004105510571F60895019739F0880F991FA9
:1007A000880F991F02970197F1F70895789484B5FF
:1007B000826084BD84B5816084BD85B5826085BD5D
:1007C00085B5816085BDEEE6F0E080818160808343
:1007D000E1E8F0E010828081826080838081816026
:1007E0008083E0E8F0E0808181608083E1EBF0E0ED
:1007F000808184608083E0EBF0E080818160808391
:10080000EAE7F0E080818460808380818260808379
:100810008081816080838081806880831092C100A4
:100820000895CF93DF93482F50E0CA0186569F4F1B
:10083000FC0134914A575F4FFA018491882369F192
:1008400090E0880F991FFC01E859FF4FA591B491E2
:10085000FC01EE58FF4FC591D491662351F42FB798
:10086000F8948C91932F909589238C938881892378
:100870000BC0623061F42FB7F8948C91932F909550
:1008800089238C938881832B88832FBF06C09FB7D1
:10089000F8948C91832B8C939FBFDF91CF91089517
:1008A000482F50E0CA0182559F4FFC012491CA0194
:1008B00086569F4FFC0194914A575F4FFA0134913D
:1008C000332309F440C0222351F1233071F0243046
:1008D00028F42130A1F0223011F514C02630B1F0F7
:1008E0002730C1F02430D9F404C0809180008F7784
:1008F00003C0809180008F7D8093800010C084B5FC
:100900008F7702C084B58F7D84BD09C08091B0000F
:100910008F7703C08091B0008F7D8093B000E32F6C
:10092000F0E0EE0FFF1FEE58FF4FA591B4912FB7E7
:10093000F894662321F48C919095892302C08C91C0
:10094000892B8C932FBF0895682F70E0CB018255BF
:100950009F4FFC012491CB0186569F4FFC0144918F
:100960006A577F4FFB019491992319F420E030E0FE
:100970003CC0222351F1233071F0243028F421307F
:10098000A1F0223011F514C02630B1F02730C1F0AB
:100990002430D9F404C0809180008F7703C0809107
:1009A00080008F7D8093800010C084B58F7702C057
:1009B00084B58F7D84BD09C08091B0008F7703C05E
:1009C0008091B0008F7D8093B000892F90E0880FD8
:1009D000991F84589F4FFC01A591B4918C9120E000
:1009E00030E0842311F021E030E0C9010895CF9375
:1009F000DF930E94D6030E941B01C0E0D0E00E945A
:100A00009E002097E1F30E940000F9CFCF92DF9281
:100A1000EF92FF920F931F93CF93DF937C016B01B3
:100A20008A01C0E0D0E00FC0D6016D916D01D70101
:100A3000ED91FC910190F081E02DC7010995C80F5F
:100A4000D91F015010400115110571F7CE01DF913A
:100A5000CF911F910F91FF90EF90DF90CF9008956D
:100A6000CF93DF93EC016115710519F420E030E0BC
:100A70000FC0DB010D900020E9F71197A61BB70B03
:100A8000E881F9810280F381E02DAD0109959C0197
:100A9000C901DF91CF9108950E9430050895EE0FAE
:0E0AA000FF1F0590F491E02D0994F894FFCF0C
:100AAE004D4F54494F4E204C454654004D4F5449DE
:100ABE004F4E205249474854004D4F54494F4E20F7
:100ACE00464F52574152440000000000F101060506
:080ADE00000040001400540068
:00000001FF
